:020000040800F2
:1000000000000320112500084109000843090008E9
:1000100045090008470900084909000800000000D8
:100020000000000000000000000000004B09000874
:100030004D090008000000004F09000851090008A0
:100040006525000865250008652500086525000868
:100050006525000865250008652500086525000858
:100060006525000865250008652500086525000848
:100070006525000865250008652500086525000838
:100080006525000865250008652500086525000828
:100090006525000865250008652500086525000818
:1000A0006525000865250008652500086525000808
:1000B00065250008652500086525000865250008F8
:1000C00065250008652500086525000865250008E8
:1000D00065250008652500086525000865250008D8
:1000E00065250008652500086525000865250008C8
:1000F00065250008652500086525000865250008B8
:1001000065250008652500086525000865250008A7
:100110006525000865250008652500086525000897
:100120006525000865250008652500086525000887
:0C0130006525000865250008652500080D
:10013C000348044B834202D0034B03B1184770476A
:10014C00140000201400002000000000054806499F
:10015C000B1AD90F01EBA301491002D0034B03B1C9
:10016C001847704714000020140000200000000005
:10017C0010B5064C237843B9FFF7DAFF044B13B1E3
:10018C000448AFF300800123237010BD140000203D
:10019C00000000006825000808B5044B1BB1044999
:1001AC000448AFF30080BDE80840CFE70000000032
:1001BC00180000206825000870B50D4E0D4D761BFB
:1001CC00B61006D00024013455F8043B9847A642DB
:1001DC00F9D1094E094D761B02F0C0F9B61006D0C4
:1001EC000024013455F8043B9847A642F9D170BD60
:1001FC007C2600087C260008802600087C26000847
:10020C00F0B4860746D0541E002A3CD0CAB203462E
:10021C0002E014F1FF3436D303F8012B9D07F8D11B
:10022C00032C29D9CDB245EA05250F2C45EA054505
:10023C0033D9A4F11006360903F1200707EB061792
:10024C0003F1100242E9045542E902551032BA4258
:10025C00F8D1721C14F00C0F03EB021204F00F0611
:10026C0013D0331F23F003030433134442F8045B0D
:10027C009342FBD106F003042CB1C9B21C4403F821
:10028C00011B9C42FBD1F0BC704734461346002C3A
:10029C00F3D1F8E714460346C2E71A462646E0E7D0
:1002AC0053B94AB9002908BF00281CBF4FF0FF31D1
:1002BC004FF0FF3000F06EB9ADF1080C6DE904CED3
:1002CC0000F006F8DDF804E0DDE9022304B0704725
:1002DC002DE9F047089D04468C46002B40F08380A6
:1002EC008A42174647D9B2FA82F242B1C2F12000D3
:1002FC0024FA00F09140974040EA010C94404FEAF8
:10030C001748230CBCFBF8F61FFA87FE08FB16C136
:10031C0043EA014306FB0EF1994209D9FB1806F199
:10032C00FF3080F01981994240F21681023E3B4425
:10033C005B1AA4B2B3FBF8F008FB103344EA034495
:10034C0000FB0EFEA64509D93C1900F1FF3380F0E5
:10035C000581A64540F2028102383C4440EA064041
:10036C00A4EB0E0400261DB1D4400023C5E90043C4
:10037C003146BDE8F08702B9FFDEB2FA82F2002AFC
:10038C0050D1CB1B4FEA174E1FFA87F80126B3FB4F
:10039C00FEFC210C0EFB1C3341EA034108FB0CF361
:1003AC008B4207D979180CF1FF3002D28B4200F244
:1003BC00E9808446C91AA3B2B1FBFEF00EFB101102
:1003CC0043EA014408FB00F8A04507D93C1900F1A9
:1003DC00FF3302D2A04500F2D9801846A4EB0804E2
:1003EC0040EA0C40BFE78B4209D9002D00F0B180E8
:1003FC000026C5E9000130463146BDE8F087B3FA66
:10040C0083F6002E4AD18B4202D3824200F2B8808E
:10041C00841A61EB030101208C46002DA8D0C5E99C
:10042C00004CA5E7C2F1200320FA03F6974001FA2D
:10043C0002F04FEA174ED9403043030CB1FBFEF6E5
:10044C001FFA87F80EFB161143EA014306FB08F16D
:10045C00994204FA02F409D9FB1806F1FF3C80F02A
:10046C008D80994240F28A80023E3B445B1A81B2F5
:10047C00B3FBFEF00EFB103341EA034100FB08F323
:10048C008B4207D9791800F1FF3C73D28B4271D99A
:10049C0002383944CB1A40EA064678E7C6F1200CFC
:1004AC0003FA06F422FA0CF31C4320FA0CF701FAB7
:1004BC0006F34FEA144E21FA0CF11F433B0CB1FB2F
:1004CC00FEF91FFA84F80EFB191143EA014109FBEE
:1004DC0008FA8A4502FA06F200FA06F308D96118FE
:1004EC0009F1FF3048D28A4546D9A9F102092144C5
:1004FC00A1EB0A01BFB2B1FBFEF00EFB101147EAF3
:10050C00014700FB08F8B84507D9E71900F1FF319E
:10051C002ED2B8452CD90238274440EA0940A7EB23
:10052C000807A0FB02894F45C64649461AD317D087
:10053C005DB1B3EB0E0267EB010707FA0CFCF2405E
:10054C004CEA0202F740C5E9002700263146BDE817
:10055C00F0872E4628460BE70646E9E61846FDE6E8
:10056C004345E5D2B8EB020E69EB04010138DFE735
:10057C000846D2E760468DE78146B9E7664675E7DF
:10058C0030464AE7ACF1020C394413E702383C44DC
:10059C0024E700BF704700BF72B6FEE730B59BB0D2
:1005AC004822002108A8FFF72BFE00240194029496
:1005BC00039404940594069407944FF0B045EB68AB
:1005CC0023F07003EB60EB6823F0030343F00103AB
:1005DC00EB6001F0E1FDD5F8903023F01803C5F87D
:1005EC0090301C4A136823F4C06343F40073136007
:1005FC00136803F4C0630093009B272308934FF404
:10060C008033099301230A934FF480720B920F935A
:10061C0040230C93109460231193139408A800F0BA
:10062C0091FD90B96F23019302230293002303934E
:10063C000493059306930793012101A801F018F97F
:10064C0028B901F0CFFC1BB030BDFFF7A5FFFFF7B9
:10065C00A3FF00BF0004005800B595B04422002150
:10066C0001A8FFF7CDFD4FF4005300930023129324
:10067C001393684601F027FB10B915B05DF804FB25
:10068C00FFF78AFF08B501F01BFEFFF787FFFFF7A6
:10069C00E3FF00F00FF800F063F800F0DDF8022142
:1006AC00034801F070FD4FF4FA7001F037FEF6E7E5
:1006BC000004004830B58BB00024059406940794D0
:1006CC00089409944FF0B043DA6C42F00402DA64F7
:1006DC00DA6C02F004020492049ADA6C42F0020220
:1006EC00DA64DA6C02F002020392039ADA6C42F0DA
:1006FC000102DA64DA6C02F001020292029ADA6CFC
:10070C0042F00802DA64DB6C03F008030193019BEE
:10071C00104D22462321284601F030FD102305936D
:10072C000694079405A90C4801F064FC2323059357
:10073C00012306930794089405A9284601F05AFC56
:10074C00032305930694079405A9044801F052FC71
:10075C000BB030BD0004004800080048000C0048F5
:10076C0008B51848184B03604FF4E13343604FF061
:10077C00805383600023C36003610C224261836158
:10078C00C36103624362836200F025FB70B90021F0
:10079C000C4800F098FB60B900210A4800F0B8FB47
:1007AC0050B9084800F070FB48B908BDFFF7F4FEDB
:1007BC00EDE7FFF7F1FEEFE7FFF7EEFEF1E7FFF7EE
:1007CC00EBFEF2E7300000200038014010B59CB081
:1007DC00044600211791189119911A911B915022DE
:1007EC0003A8FFF70DFD2268194B9A4201D01CB0EB
:1007FC0010BD012303930023099303A801F063FAAE
:10080C0010BB4FF0B0431A6E42F480421A661A6E57
:10081C0002F480420292029ADA6C42F00202DA642A
:10082C00DB6C03F002030193019BC023179302239B
:10083C0018930123199300231A9307231B9317A9C9
:10084C00044801F0D7FBD2E7FFF7A6FED9E700BFBB
:10085C00003801400004004808B50A480A4B036000
:10086C000823436002238360036100234361836197
:10087C00C361036201F066FD00B908BDFFF78CFE91
:10088C00FBE700BFC00000200068004010B59CB022
:10089C00044600211791189119911A911B9150221D
:1008AC0003A8FFF7ADFC2268214B9A4201D01CB083
:1008BC0010BD4FF480730393182304934FF400334B
:1008CC0005934FF0007306934FF0005307934FF0CE
:1008DC00807308934FF08063109303A801F0F3F931
:1008EC0018BB4FF0B044E36C43F00103E364E36CDA
:1008FC0003F001030293029B4FF4C053179302239E
:10090C001893002319931A930A231B9317A94FF0DA
:10091C00904001F06FFBA36D43F08063A365A36D62
:10092C0003F080630193019BC1E7FFF735FED8E725
:10093C0000680040FEE7FEE7FEE7FEE7FEE77047D3
:10094C007047704708B501F0D1FC08BD7047000036
:10095C002DE9F0410446016883680269134342693A
:10096C001343C269134308688F4A024013430B6058
:10097C002268536823F44053E1680B435360A16928
:10098C0022688A4B9A4201D0236A1943936823F058
:10099C006E4323F430630B4393602268D36A23F0D5
:1009AC000F03616A0B43D3622268814B9A4219D0C0
:1009BC007E4B9A422AD010237C498A4245D0E0696A
:1009CC00B0F5004F00F08280013B072B00F2E6806F
:1009DC00DFE813F0AC00AA00E400CE00E400E40071
:1009EC00E400D1004FF0B043D3F8883003F0030398
:1009FC00032B09D8DFE803F002041F060123DBE711
:100A0C000423D9E70823D7E71023D5E74FF0B043E9
:100A1C00D3F8883003F44063B3F5006F0DD005D8DC
:100A2C006BB1B3F5806F0CD10423C5E7B3F5406F00
:100A3C0009D10823C0E70223BEE70223BCE7002349
:100A4C00BAE71023B8E71023B6E7082B00F296801C
:100A5C00DFE803F008943A943794949405004FF42B
:100A6C00004004E001F036F8002800F08980626A4A
:100A7C00504B33F81220B0FBF2F3656805EB4501DF
:100A8C0099427FD8B3EB053F7ED84FF0000892B265
:100A9C0000234146FFF704FC0F0247EA10670602E9
:100AAC0068082A464346301847F10001FFF7F8FB67
:100ABC00A0F54072404B9A4268D82368D8604046F3
:100ACC004CE000F0CFFACFE73C48D0E7013B072BD6
:100ADC005ED8DFE803F006045D265D5D5D0A3748ED
:100AEC0003E001F009F8002854D0626A314B33F866
:100AFC001230B0FBF3F06268530803EB4000B0FB1C
:100B0C00F2F080B2A0F110024FF6EF739A4243D884
:100B1C0020F00F03C0F3420018432368D860002074
:100B2C001CE000F09FFADEE7244802E000F0E4FF4E
:100B3C00B0B3626A1F4B33F81230B0FBF3F063684A
:100B4C0000EB5300B0FBF3F080B2A0F110024FF6B3
:100B5C00EF739A4226D82368D86000200123A4F8AA
:100B6C006A30A4F86830002323676367BDE8F0811E
:100B7C0000F078FADCE74FF40040DAE70120EDE70B
:100B8C000020EBE70120E9E70120E7E70120E5E79A
:100B9C000120E3E70020E1E70120DFE70120DDE7AA
:100BAC000020DBE70120D9E7F369FFCF008000408C
:100BBC0000380140AC250008FFFC0F000024F400B5
:100BCC00836A13F0010F06D00268536823F40033D4
:100BDC00C16A0B435360836A13F0020F06D002689C
:100BEC00536823F48033016B0B435360836A13F017
:100BFC00040F06D00268536823F48023416B0B4327
:100C0C005360836A13F0080F06D00268536823F40C
:100C1C000043816B0B435360836A13F0100F06D0B3
:100C2C000268936823F48053C16B0B439360836A0F
:100C3C0013F0200F06D00268936823F40053016C64
:100C4C000B439360836A13F0400F0AD00268536819
:100C5C0023F48013416C0B435360436CB3F5801F3A
:100C6C000BD0836A13F0800F06D00268536823F40C
:100C7C000023C16C0B43536070470268536823F424
:100C8C00C003816C0B435360EBE72DE9F843054639
:100C9C000F4616469946DDF820802C68E46937EA41
:100CAC0004030CBF01240024B44257D1B8F1FF3F18
:100CBC00F3D001F027FBA0EB090040452FD8B8F189
:100CCC00000F2CD02B681A6812F0040FE5D0DA69EB
:100CDC0012F4006FE1D04FF400621A622A6852E8F5
:100CEC00003F23F4D07342E800310029F6D12A6882
:100CFC0002F1080353E8003F23F00103083242E8F5
:100D0C0000310029F3D12023C5F88430C5F8883090
:100D1C00C5F88C30002385F8803003201FE02A684A
:100D2C0052E8003F23F4D07342E800310029F6D199
:100D3C002A6802F1080353E8003F23F0010308324C
:100D4C0042E800310029F3D12023C5F88430C5F8DE
:100D5C008830002385F88030032000E00020BDE8B7
:100D6C00F88330B583B004460023C0F88C3001F012
:100D7C00C9FA054623681B6813F0080F0FD12368C6
:100D8C001B6813F0040F18D12023C4F88430C4F866
:100D9C0088300020E06684F8800003B030BD6FF02E
:100DAC007E430093034600224FF400112046FFF7C8
:100DBC006CFF0028E3D00320EFE76FF07E43009335
:100DCC002B4600224FF480012046FFF75EFF0028DF
:100DDC00DAD00320E1E778B310B50446D0F88430BC
:100DEC000BB32423C4F884302268136823F0010366
:100DFC0013602046FFF7ACFD012813D0A36ABBB9E2
:100E0C002268536823F4904353602268936823F05C
:100E1C002A0393602268136843F001031360204691
:100E2C00FFF79FFF10BD80F88030FFF7CFFCD8E7AD
:100E3C002046FFF7C5FEE3E701207047436E2BB950
:100E4C000123A0F86A30A0F86830704730B403680A
:100E5C009A68C2F342629968490F094D6B5CDB00DA
:100E6C00084C615C93FBF1F3A0F86A30AB5CDB00DF
:100E7C00A25C93FBF2F3A0F8683030BC704700BF63
:100E8C00CC250008C425000890F88030012B18D020
:100E9C00012380F880302423C0F8843003681A685A
:100EAC00196821F00101196022F0005200234366F9
:100EBC0001680A602022C0F8842080F8803018462F
:100ECC0070470220704738B590F88030012B1DD048
:100EDC000446012380F880302423C0F88430036852
:100EEC001D681A6822F001021A600268936823F0E8
:100EFC00604319439160FFF7A1FF23681D60202315
:100F0C00C4F88430002084F8800038BD0220FCE74F
:100F1C0038B590F88030012B1DD00446012380F8A1
:100F2C0080302423C0F8843003681D681A6822F0CE
:100F3C0001021A600268936823F0606319439160A0
:100F4C00FFF77CFF23681D602023C4F88430002049
:100F5C0084F8800038BD0220FCE70000F0B58DB0AD
:100F6C0005460F462A4C94E80F000CAE06E90F001C
:100F7C0005AB04F1100207CA83E8070001AE1C346C
:100F8C0094E80F0086E80F00B7F5007F1BD0002314
:100F9C00022B22D80CAA02EB830252F81C2CAA4278
:100FAC0015D20133F4E70133032B0ED80CAA02EB54
:100FBC00830252F8102CAA42F5D30CAA02EB83033D
:100FCC0053F82C5C0AE00023EEE7002506E00CAA9F
:100FDC0002EB830353F82C5C00E000250D4A1368E8
:100FEC0023F007032B43136001F08CF90446094BE3
:100FFC001B6803F00703AB4206D001F083F9001B1A
:10100C000228F4D9032000E000200DB0F0BD00BF91
:10101C00802500080040005810B5B02816D90E4B9A
:10102C00DC6A4FF0B043D3F8083103F00F030B4ADE
:10103C0052F82300B4FBF0F401F0B6F8014608486E
:10104C00A0FB0430800CFFF789FF10BDC0F3031028
:10105C00014B53F82040E4E734260008D42500085F
:10106C0083DE1B434FF0B0439B6813F00C030DD190
:10107C004FF0B0431B6803F0F003B02B04D81B09EE
:10108C00254A52F823007047B023F8E7042B3ED0D2
:10109C00082B10D04FF0B043DB6803F00303022B96
:1010AC001FD0032B0FD14FF0B0431B6813F4801FDC
:1010BC002BD11A4B16E04FF0B0431B6813F4801F72
:1010CC0027D0174870474FF0B0431B6803F0F0036C
:1010DC00B02B04D81B09104A52F8233002E0B0237D
:1010EC00F8E70F4B4FF0B042D068C0F3062000FB7E
:1010FC0003F0D368C3F302130133B0FBF3F0D368EE
:10110C005B0F0133B0FBF3F07047054BEAE7044883
:10111C0070470248704700BF342600080048E801B9
:10112C000024F40008B5FFF79DFF4FF0B0439B6817
:10113C00C3F30313024A52F82330B0FBF3F008BD9B
:10114C00D4250008002800F07E8338B504460368D7
:10115C0013F0200F7FD04FF0B0429368D26802F0AA
:10116C00030213F00C031DD00C2B19D0E369002BD8
:10117C0000F09E804FF0B042136843F001031360FF
:10118C0001F0C0F805464FF0B0431B6813F0020F96
:10119C0052D101F0B7F8401B0228F4D903205DE3CB
:1011AC00012AE3D14FF0B0431B6813F0020F03D0B8
:1011BC00E369002B00F04983606A4FF0B0431B6871
:1011CC0003F0F003B02B20D8984220D9FFF724FF6E
:1011DC00002840F03C83636A4FF0B042116821F064
:1011EC00F0010B431360216A536823F47F4343EAF5
:1011FC0001235360FFF796FFC44B1860C44B18686B
:10120C0001F036F838B3012028E3B023DCE74FF0C7
:10121C00B042136823F0F00318431060216A53683E
:10122C0023F47F4343EA01235360606AFFF7F4FE23
:10123C000028DFD0012011E3636A4FF0B04211683F
:10124C0021F0F0010B431360216A536823F47F43B0
:10125C0043EA01235360236813F0010F4AD04FF087
:10126C00B042936803F00C03D26802F00302082B1F
:10127C0036D00C2B32D06368B3F5803F63D04FF07F
:10128C00B042136823F4803313606368002B61D081
:10129C0001F038F805464FF0B0431B6813F4003FDB
:1012AC0028D101F02FF8401B6428F4D90320D5E293
:1012BC004FF0B042136823F00103136001F022F8E1
:1012CC0005464FF0B0431B6813F0020FC3D001F07A
:1012DC0019F8401B0228F4D90320BFE2032ACAD113
:1012EC004FF0B0431B6813F4003F03D06368002B2E
:1012FC0000F0AF82236813F0020F50D04FF0B042D1
:10130C00936803F00C03D26802F00302042B33D071
:10131C000C2B2FD0E368002B77D04FF0B042136822
:10132C0043F48073136000F0EDFF05464FF0B043BB
:10133C001B6813F4806F5ED100F0E4FF401B0228A1
:10134C00F4D903208AE24FF0B042136843F480339F
:10135C0013609AE700F0D6FF05464FF0B0431B68C8
:10136C0013F4003FC6D000F0CDFF401B6428F4D925
:10137C00032073E2022ACDD14FF0B0431B6813F463
:10138C00806F03D0E368002B00F0658221694FF079
:10139C00B042536823F0FE4343EA01635360236871
:1013AC0013F0180F00F0E8806269002A00F0B28098
:1013BC0013F0100F7AD04FF0B043D3F8943013F0F1
:1013CC00020F38D14FF0B042D2F8943043F0010301
:1013DC00C2F8943000F096FF05464FF0B043D3F8B6
:1013EC00943013F0020F26D100F08CFF401B022822
:1013FC00F3D9032032E221694FF0B042536823F055
:10140C00FE4343EA01635360C9E74FF0B0421368EF
:10141C0023F48073136000F075FF05464FF0B04362
:10142C001B6813F4806FBAD000F06CFF401B0228CD
:10143C00F4D9032012E24FF0B042D2F8943043F0CA
:10144C000403C2F8943000F05DFF05464FF0B04342
:10145C00D3F8943013F0080F06D100F053FF401B63
:10146C000328F3D90320F9E1A1694FF0B042D2F877
:10147C00943023F4706343EA0123C2F89430D2F819
:10148C00943023F00103C2F8943000F03BFF054682
:10149C004FF0B043D3F8943013F0020F6CD000F03F
:1014AC0031FF401B0228F3D90320D7E14FF0B042A3
:1014BC00D2F8943043F00103C2F8943000F022FFCC
:1014CC0005464FF0B043D3F8943013F0020F06D119
:1014DC0000F018FF401B0228F3D90320BEE14FF0A7
:1014EC00B042D2F8943023F00403C2F894304FF099
:1014FC00B043D3F8943013F0080F3DD000F002FF46
:10150C00401B0328F3D90320A8E100BF10000020E2
:10151C000C0000204FF0B042D2F8943023F00403BA
:10152C00C2F8943000F0EEFE05464FF0B043D3F80D
:10153C00943013F0080F18D14FF0B042D2F8943019
:10154C0023F00103C2F8943000F0DCFE05464FF0A6
:10155C00B043D3F8943013F0020F0DD000F0D2FE4C
:10156C00401B0228F3D9032078E100F0CBFE401B8E
:10157C000328DAD9032071E1236813F0040F68D033
:10158C00B94B1B6813F4807F27D0A368012B35D08F
:10159C00052B3CD04FF0B043D3F8902022F0010241
:1015AC00C3F89020D3F8902022F00402C3F89020C6
:1015BC00A368DBB300F0A6FE05464FF0B043D3F8AA
:1015CC00903013F0020F44D100F09CFE401B41F20E
:1015DC0088339842F1D9032040E100F0DDFD00F0A2
:1015EC0091FE0546A04B1B6813F4807FCDD100F013
:1015FC0089FE401B0228F5D903202FE14FF0B042A1
:10160C00D2F8903043F00103C2F89030D0E74FF09D
:10161C00B043D3F8902042F00402C3F89020D3F8E2
:10162C00902042F00102C3F89020C1E700F06AFE5E
:10163C0005464FF0B043D3F8903013F0020F08D0AA
:10164C0000F060FE401B41F288339842F1D9032030
:10165C0004E1236813F0400F33D0A36AC3B14FF0F9
:10166C00B042D2F8983043F00103C2F8983000F041
:10167C0049FE05464FF0B043D3F8983013F0020FF3
:10168C001FD100F03FFE401B0228F3D90320E5E0F8
:10169C004FF0B042D2F8983023F00103C2F89830E2
:1016AC0000F030FE05464FF0B043D3F8983013F0FD
:1016BC00020F06D000F026FE401B0228F3D90320AF
:1016CC00CCE0E36A002B00F0C8804FF0B042916888
:1016DC0001F00C01D268022B23D00C2900F0C18040
:1016EC004FF0B0431A6822F080721A60DA6822F068
:1016FC000302DA60DA6822F0885222F48032DA606F
:10170C0000F000FE04464FF0B0431B6813F0007F5E
:10171C0000F0978000F0F6FD001B0228F3D903209F
:10172C009CE002F00303206B83420AD00C2900F0EA
:10173C0096804FF0B0431B6813F0806F22D00120CD
:10174C008CE002F07003606B8342EFD1C2F306238E
:10175C00A06B8342EAD102F47813E06B8342E5D1AB
:10176C0002F06063206C8342E0D102F06042636C53
:10177C009A42DBD14FF0B0431B6813F0007F44D08A
:10178C0000206BE04FF0B042136823F080731360BD
:10179C0000F0B8FD05464FF0B0431B6813F0007F16
:1017AC0006D000F0AFFD401B0228F4D9032055E011
:1017BC004FF0B042D3682D491940236B606B034343
:1017CC00A06B43EA0023E06B0343206C0343606C83
:1017DC0003430B43D360136843F080731360D368E7
:1017EC0043F08053D36000F08DFD04464FF0B043BE
:1017FC001B6813F0007F06D100F084FD001B02284B
:10180C00F4D903202AE0002028E04FF0B0431A68F6
:10181C0042F080721A60DA6842F08052DA6000F0AE
:10182C0071FD04464FF0B0431B6813F0007F06D1E6
:10183C0000F068FD031B022BF4D903200EE00020FE
:10184C000CE000200AE001207047012006E0012096
:10185C0004E0012002E0012000E0002038BD01205E
:10186C00FCE70120FAE700BF000400588C80C1118E
:10187C00002800F0278170B50C460546934B1B6879
:10188C0003F007038B422DD32B6813F0020F3FD1CB
:10189C002B6813F0200F53D12B6813F0400F6AD133
:1018AC002B6813F0040F40F083802B6813F0080FA3
:1018BC0040F097802B6813F0010F00F0DE806B680E
:1018CC00022B00F0A880032B00F0AD80002B40F021
:1018DC00B2804FF0B042126812F0020F40F0B180AB
:1018EC000120EEE0794A136823F007030B431360E1
:1018FC0000F008FD0646754B1B6803F00703A34276
:10190C00C2D000F0FFFC801B0228F4D90320D8E0E1
:10191C00AB684FF0B0418A6822F0F00213438B6041
:10192C0000F0F0FC06464FF0B0439B6813F4803F88
:10193C00AED100F0E7FC801B0228F4D90320C0E0F4
:10194C006B694FF0B041D1F8082122F0F00213433B
:10195C00C1F8083100F0D6FC06464FF0B043D3F87E
:10196C00083113F4003F97D100F0CCFC801B022807
:10197C00F3D90320A5E0A9694FF0B042D2F80831A1
:10198C0023F00F0343EA1113C2F8083100F0BAFC3C
:10199C0006464FF0B043D3F8083113F4803F7FF480
:1019AC007FAF00F0AFFC801B0228F2D9032088E047
:1019BC00EB684FF0B0418A6822F4E06213438B600D
:1019CC0000F0A0FC06464FF0B0439B6813F4003FB8
:1019DC007FF46BAF00F096FC801B0228F3D9032038
:1019EC006FE029694FF0B042936823F4605343EAE7
:1019FC00C103936000F086FC06464FF0B0439B6831
:101A0C0013F4802F7FF456AF00F07CFC801B02286F
:101A1C00F3D9032055E04FF0B042126812F4003FA6
:101A2C000FD101204DE04FF0B042126812F0007F50
:101A3C0007D1012045E04FF0B042126812F4806FDC
:101A4C0042D04FF0B0418A6822F0030213438B60FE
:101A5C0000F058FC06464FF0B0439B6803F00C03B3
:101A6C006A68B3EB820F08D000F04CFC801B41F28B
:101A7C0088339842EFD9032023E0144B1B6803F002
:101A8C000703A34215D9114A136823F00703234314
:101A9C00136000F037FC05460C4B1B6803F0070382
:101AAC00A34206D000F02EFC401B0228F4D90320E0
:101ABC0007E0FFF737FB064B186000F029FC00F03D
:101ACC00D7FB70BD012070470120FAE70040005899
:101ADC001000002008B5FFF725FB4FF0B0439B68C2
:101AEC00C3F30223034A52F8233003F01F03D840F8
:101AFC0008BD00BF1426000808B5FFF713FB4FF014
:101B0C00B0439B68C3F3C223034A52F8233003F05B
:101B1C001F03D84008BD00BF1426000870B5054649
:101B2C004FF0B042136823F08063136000F0EAFBBF
:101B3C0004464FF0B0431B6813F0006F06D000F062
:101B4C00E1FB001B0228F4D9032400E000240CB1B3
:101B5C00204670BD4FF0B0431A6922F4FE4229684A
:101B6C0042EA01221A611A6922F4781269680A435E
:101B7C001A611A6842F080621A6000F0C3FB0646D4
:101B8C004FF0B0431B6813F0006F05D100F0BAFBA7
:101B9C00801B0228F4D90324002CD9D14FF0B04279
:101BAC00136929690B431361D2E770B505464FF0F1
:101BBC00B042136823F08063136000F0A3FB04466B
:101BCC004FF0B0431B6813F0006F06D000F09AFB87
:101BDC00001B0228F4D9032400E000240CB1204699
:101BEC0070BD4FF0B0431A6922F4FE42296842EAF4
:101BFC0001221A611A6922F06062A9680A431A610B
:101C0C001A6842F080621A6000F07CFB06464FF0C6
:101C1C00B0431B6813F0006F05D100F073FB801B01
:101C2C000228F4D90324002CD9D14FF0B042136907
:101C3C0029690B431361D2E770B505464FF0B042EA
:101C4C00136823F08063136000F05CFB04464FF0D4
:101C5C00B0431B6813F0006F06D000F053FB001B61
:101C6C000228F4D9032400E000240CB1204670BDF6
:101C7C004FF0B0431A6922F4FE42296842EA01226D
:101C8C001A611A6922F06042E9680A431A611A68FB
:101C9C0042F080621A6000F035FB06464FF0B0430C
:101CAC001B6813F0006F05D100F02CFB801B022881
:101CBC00F4D90324002CD9D14FF0B042136929690F
:101CCC000B431361D2E770B50446036813F0400F61
:101CDC002FD0036BB3F5800F21D00AD833B9043061
:101CEC00FFF71CFF064658B1054624E001252E4699
:101CFC0021E0B3F5000F1AD0B3F5400F0CD100263C
:101D0C00236B4FF0B041D1F8882022F440021343EA
:101D1C00C1F8883000250EE001252E460BE04FF06F
:101D2C00B042D36843F48033D3600026E8E7002642
:101D3C00E6E700252E46236813F4006F0AD04FF017
:101D4C00B043D3F8905005F44075236CAB4240F08F
:101D5C00D5803546236813F0010F09D0A3694FF0E5
:101D6C00B041D1F8882022F003021343C1F8883027
:101D7C00236813F0020F09D0E3694FF0B041D1F89A
:101D8C00882022F440621343C1F88830236813F092
:101D9C00100F0CD0A06A4FF0B041D1F88830020C73
:101DAC00120423EA020343EA0043C1F88830236893
:101DBC0013F0200F0CD0E06A4FF0B041D1F888300E
:101DCC00020C120423EA020343EA0043C1F88830F0
:101DDC00236813F0040F0FD0236A4FF0B040D0F8F3
:101DEC008820190901F47F2122EA01021B0103F466
:101DFC007F231343C0F88830236813F0080F0FD0EB
:101E0C00636A4FF0B040D0F88820190901F47F21A3
:101E1C0022EA01021B0103F47F231343C0F888302C
:101E2C00236813F4807F13D0636B4FF0B041D1F86B
:101E3C00882022F040621343C1F88830636BB3F101
:101E4C00006F00F09C80636BB3F1806F00F09C809E
:101E5C00236813F4007F17D0A36BB3F1804F05D028
:101E6C00B3F1004F02D0002B40F096804FF0B04100
:101E7C00D1F8882022F040421343C1F88830A36B7C
:101E8C00B3F1C05F00F09A80236813F4806F13D015
:101E9C00E36B4FF0B041D1F8882022F0405213434D
:101EAC00C1F88830E36BB3F1005F00F08E80E36B18
:101EBC00B3F1805F00F08E80236813F4805F09D04B
:101ECC00636C4FF0B041D1F8942022F4404213439C
:101EDC00C1F89430236813F4005F0DD0E26C4FF01E
:101EEC00B043596A21F030010A435A62A26C596A14
:101EFC0021F003010A435A62284670BD00F04CF9E8
:101F0C005DB9236C4FF0B041D1F8902022F44072AF
:101F1C001343C1F8903035461CE74FF0B043D3F86B
:101F2C009020D3F8901041F48031C3F89010D3F87E
:101F3C00901021F48031C3F8901022F44072216C7F
:101F4C000A43C3F89020D3F8903013F0010F12D04D
:101F5C0000F0D8F905464FF0B043D3F8903013F0A9
:101F6C00020F0AD100F0CEF9401B41F2883398429F
:101F7C00F1D90325EEE63546ECE63546EAE6CB68C4
:101F8C0043F08073CB605EE7201DFFF70EFE002848
:101F9C003FF45EAF05465BE723F080534FF0B04251
:101FAC00D2F8881021F04041C2F88810D2F888107D
:101FBC0021F040610B43C2F8883060E74FF0B0422B
:101FCC00D36843F08073D3605EE7CB6843F480330F
:101FDC00CB606CE7201DFFF72FFE00283FF46CAFA1
:101FEC00054669E74FF0B042136843F004031360F1
:101FFC0070470000F0B400235FE086685F000325A3
:10200C00BD4026EA0506CD68BD403543856046686F
:10201C0026EA04064D68C5F300149C403443446022
:10202C0059E0DD08083550F8257003F00704A600C8
:10203C000F24B44027EA04070C69B4403C4340F831
:10204C0025405CE0042400E00024B4403C4302350D
:10205C00474E46F82540474C2568D44325EA0206EE
:10206C004F6817F4801F01D042EA0506414D2E60DF
:10207C006D6804EA05064F6817F4001F01D042EAA8
:10208C0005063C4D6E60D5F8805004EA05064F6895
:10209C0017F4803F01D042EA0506364DC5F8806042
:1020AC00D5F884502C404E6816F4003F01D042EA1B
:1020BC000504304AC2F8844001330A6832FA03F44A
:1020CC0054D001249C402240F6D04D6805F0030505
:1020DC00013D012D91D94C6804F00304032C09D067
:1020EC00C5685E000324B44025EA04058C68B4403E
:1020FC002C43C4604C6804F00304022C91D0056896
:10210C005E000324B44025EA04054C6804F0030483
:10211C00B4402C4304604C6814F4403FCCD09D0870
:10212C00AE1C134C54F8267003F00304A6000F24C5
:10213C00B44027EA0407B0F1904F85D00E4CA04272
:10214C000ED004F58064A0420CD004F58064A0424B
:10215C000AD004F58064A0423FF474AF072474E7FE
:10216C00012472E7022470E703246EE7F0BC704789
:10217C000000014000080058000400480AB18161C9
:10218C00704781627047436901EA030221EA030147
:10219C0041EA024181617047024A136843F480733B
:1021AC001360704700040058024B186800F4C060BC
:1021BC00704700BF00040058074AD36823F4E0635B
:1021CC001B041B0C000200F4E060034343F0BF63EC
:1021DC0043F40033D360704700ED00E030B4174B8C
:1021EC00DB68C3F30223C3F10704042C28BF0424C7
:1021FC001D1D062D18D9033B4FF0FF3505FA04F4CD
:10220C0021EA0401994005FA03F322EA0303194376
:10221C0000280BDB0901C9B200F1604000F56140F8
:10222C0080F8001330BC70470023E5E700F00F0086
:10223C000901C9B2024B1954F4E700BF00ED00E0EC
:10224C0014ED00E00138B0F1807F0AD2064B5860E3
:10225C00064AF02182F823100020986007221A60A9
:10226C0070470120704700BF10E000E000ED00E077
:10227C00114B1B780BB90120704710B50446FEF7C3
:10228C0051FF0D4B1A784FF47A73B3FBF2F3B0FB9A
:10229C00F3F0FFF7D7FF68B90F2C01D901200AE042
:1022AC00002221464FF0FF30FFF798FF034B1C60D4
:1022BC00002000E0012010BD080000200C000020D0
:1022CC0010B5094A136843F4807313600320FFF7B9
:1022DC0073FF0020FFF7CCFF10B10124204610BD86
:1022EC000446FEF733FBF9E700400058034B1B781C
:1022FC00034A11680B441360704700BF08000020AC
:10230C00B4030020014B1868704700BFB4030020D1
:10231C00014B1868704700BF0C00002038B504460C
:10232C00FFF7F0FF0546B4F1FF3F02D0044B1B78DA
:10233C001C44FFF7E7FF401BA042FAD338BD00BF97
:10234C0008000020002868D0F0B587B0044690F84B
:10235C00A93223B3032384F8A932206800F075F85E
:10236C000023606883421FD25A1C02EB820104EBEB
:10237C00C1010120487002EB820104F8313003EBFB
:10238C00830104EBC101CB8602EB820504EBC5058E
:10239C000020E8708863C8630864D3B2E1E780F872
:1023AC00A832FEF773FAD5E7002316E003EB83029D
:1023BC0004EBC202002182F8691182F8683182F8BC
:1023CC006B11C2F87811C2F87C1103EB830204EB99
:1023DC00C202C2F880110133DBB29842E6D825461E
:1023EC0055F8107B6E460FCD0FC62B683360231D3E
:1023FC000ECB384600F033F8002384F82430012348
:10240C0084F8A932E369012B02D0002007B0F0BD9B
:10241C00204600F004F80020F8E70120704703463E
:10242C0002680121C0F8E812002083F8E002B2F83B
:10243C0054309BB20B43A2F85430B2F854309BB2D8
:10244C0043F00203A2F854307047B0F8403023F444
:10245C007E535B045B0CA0F840300020704784B0C6
:10246C0010B4044602A880E80E000123A4F8403002
:10247C000020A4F84000A4F84400A4F850005DF833
:10248C00044B04B070470000164AD2F8883043F46D
:10249C007003C2F888304FF0B0431A6842F0010262
:1024AC001A604FF4E0229A601968A2F1A262A2F2BB
:1024BC0005120A401A60D3F8942022F00502C3F8E2
:1024CC009420D3F8982022F00102C3F89820064AF1
:1024DC00DA601A611A6822F480221A6000229A616A
:1024EC00704700BF00ED00E000100422D458C45027
:1024FC000433C4188C42F9D370470360043088420B
:10250C00FBD370470C488546FFF7BEFF0B480C49C0
:10251C000C4A0023FFF7EDFF0B480C490023FFF793
:10252C00EEFF0B480B490023FFF7E9FFFDF744FED4
:10253C00FEF7A8F8FEE700000000032008000020CA
:10254C00140000208426000814000020B80300208A
:10255C000000032000000320FEE70000F8B500BFD8
:10256C00F8BC08BC9E467047F8B500BFF8BC08BC68
:04257C009E467047C0
:10258000120000002400000036000000400000009F
:10259000060000000C000000100000000000000019
:1025A0000100000002000000030000000100020022
:1025B0000400060008000A000C0010002000400083
:1025C0008000000108040204080101010101010367
:1025D00007010000010000000300000005000000EA
:1025E0000100000001000000060000000A000000D9
:1025F00020000000020000000400000008000000AD
:1026000010000000400000008000000000010000F9
:1026100000020000000000000000000000000000B8
:1026200000000000010000000200000003000000A4
:1026300004000000A0860100400D0300801A06007F
:1026400000350C0040420F0080841E0000093D0050
:1026500000127A000024F40000366E010048E80100
:10266000006CDC0200000000000000000000000020
:042670000000000066
:0826740068DCFF7F010000009B
:04267C00A5010008AC
:042680007D010008D0
:0C268400010000001000000000093D00F3
:0400000508002511B9
:00000001FF
